:020000040000fa
:080000000002040001000000f1
:020000040000fa
:020000040002f8
:100400000f8820000e7f22000e01880000000000ef
:1004100000012000200288000c000700a037200007
:100420001100200011000700000020000000e00083
:10043000020032000000020000000000220302005f
:10044000010000000040da000000fe004440a90066
:10045000000020000000e000030032000000200047
:10046000a00188004440a800000006009101880017
:10047000800078000000eb0015003700e2804000ab
:1004800032a0b4009101ba00e280400032a0b40072
:100490009102ba00e280400032a0b4000002eb00fa
:1004a000472bde00f507b200602ce10004003a00a3
:1004b0000059eb008301e900fdff3e000400370016
:1004c0006128e100010032000082eb000400070017
:1004d0001101ba000200e000e8ff3a000000060047
:1004e0003159ba008301e9000c0032002159ba00e9
:1004f0008301e900080032000400e00003003a0034
:10050000e280400032a0b400f5ff370011d9ba00f4
:100510008301e900faff3a008100e800e180400031
:1005200032a0b400000006000040da000000fe0027
:020000040000fa
:0200000401f009
:04000c00f9ff0000f8
:020000040000fa
:0200000401f009
:04001000ffff0000ee
:020000040000fa
:0200000401f009
:040014007fff00006a
:020000040000fa
:0200000401f009
:04001c00dfff000002
:020000040000fa
:10000800940201009402010094020100940201008c
:10001800940201009402010094020100940201007c
:10002800940201009402010094020100940201006c
:10003800940201009402010094020100940201005c
:020000040000fa
:020000040000fa
:020000040002f8
:100530000c00fa0030079800410798005207980015
:100540003e0290001402780005002000048fbe00d7
:100550004e029000240798000b0037002e029000f6
:1005600014027800050020001e0f42005e974a002a
:100570002e0290000482e800240798005e0290009a
:100580000482e900540798005e029000e10f5200d7
:10059000f2ff3c005e029000e00f52001d003400ac
:1005a0002e029000144278000482fb000500200017
:1005b0001e0f42005e974a0017003700f4ff2f001d
:1005c000050020001e03be00060078000703780027
:1005d00084037800050278000700600004026300cd
:1005e00005002000c022dd00040020000403be003e
:1005f0006102b80004037300858373001e02be000d
:10060000402ade0005002000041f430005974b0030
:1006100001003700000000001e02be00402ade007c
:1006200005002000e00f5200e08f5a00e3ff3a007f
:100630009e0278003e029000050a78000080fa00d1
:0406400000000600b0
:020000040000fa
:020000040002f8
:100644000800fa000002eb00040f78000002eb003f
:10065400140798000002eb002407980044002000cf
:1006640034079800253a800004fe2f0004826200bb
:10067400243a880094022000343a8800243a800006
:100684000460a1000470a100243a88000000000066
:10069400153a80000402200004826200e00f520038
:1006a400fbff3200140280000450a1000460a1008a
:1006b4000470a1001402880001003700000000004b
:1006c4001e0fe8003e019000ae0090001e00900056
:1006d40096ff0700b40220009e027800848f520027
:1006e400f6ff3a00040078000080fa0000000600db
:020000040000fa
:020000040002f8
:0406f4000000000002
:00000001FF
